24217653000608NFSE E 0028682601R20230609000000108377080000001083770805882643000120Cajamar                                           20230227
24217653000608NFSE E 0071501801R20230606000000017144000000000171440015260761000150Cajamar                                           20230227
24217653000608NFSE E 0010502601R20230607000001061320290000010613202923850588000178Cajamar                                           20230227
24217653000608NFSE E 0001592601R20230605000000038384560000000383845630722859000175Cajamar                                           20230227
24217653000608NFSE E 0006161602T20230609000000855616110000008556161175818849000176Cajamar                                           20230227
24217653000608NFSE E 2023281102T20230605000000001600000000000016000021266146000153Cajamar                                           20230227
24217653000608NFSE E 2023291102T20230605000000002000500000000020005021266146000153Cajamar                                           20230227
24217653000608NFSE E 0052191602R20230607000000065401000000000654010060319985000144Cajamar                                           20230227