24217653010077NFSE E 0041311304R20230605000000007782000000000077820007894222000144Cajamar                                           20230227
24217653010077NFSE E 0003262601R20230606000000299027280000002990272817159961000146Cajamar                                           20230227
24217653010077NFSE E 0000921602T20230612000000035273700000000352737033098628000120Cajamar                                           20230227
24217653010077NFSE E 0001412601R20230606000000089504960000000895049634892105000114Cajamar                                           20230227
24217653010077NFSE E 0001132601R20230609000000002158900000000021589039608927000144Cajamar                                           20230227
24217653010077NFSE E 2762850713R20230602000000001360000000000013600060094406000102Cajamar                                           20230227