1002542718602023010120230618
402    E00000026674620230601NT0000000057658640000000000000000615710020000220474087600012500000000ALELO INSTITUICAO DE PAGAMENTO SA                                          ENDAL XINGU                                          512                                     ALPHAVILLE CENTRO             BARUERI                                           SP06455030tributarioeregulatorio@elopar.com.br                                       10        000000000000000000000000                                                                                                                                                                                                        VALE COMBUSTIVEL PARA FROTA PROPRIA                                                                                                                                                                                                         
402    E00000000391220230601NT0000000016711850000000000000000322017140000220492409300028200000000CELSO CORDEIRO DE ALMEIDA E SILVA ADVOGADOS                                ENDAV BRAZ OLAIA ACOSTA                              727                                     JARDIM CALIFORNIA             RIBEIRAO PRETO                                    SP14026040celso@celsocordeiroadv.com.br                                              10        000000000000000000000000                                                                                                                                                                                                        SERVICO ADVOCACIA                                                                                                                                                                                                                           
402    E00000000746020230612NT0000000012500000000000000000000629710050000222345526700025000000000LOC X GESTAO DE IMOVEIS LTDA                                               ENDR PERNAMBUCO                                      488                                     CENTRO                        DIVINOPOLIS                                       MG35500008financeiro@locximoveis.com.br                                              10        000000000000000000000000                                                                                                                                                                                                        SERVICO AGENCIAMENTO DE BENS IMOVEIS                                                                                                                                                                                                        
402    E00000000052020230601NT0000000030000000000000000000000749814010000222977869500011900000000GUS INFORMATICA LTDA                                                       ENDR OLICIO RAFAEL PEREIRA                           182                                     JARDIM MARAMBAIA II           JUNDIAI                                           SP13205756mefer@uol.com.be                                                           10        000000000000000000000000                                                                                                                                                                                                        SERVICO MANUTENCAO COLETORES                                                                                                                                                                                                                
402    E00000000051920230601NT0000000025000000000000000000000749814010000222977869500011900000000GUS INFORMATICA LTDA                                                       ENDR OLICIO RAFAEL PEREIRA                           182                                     JARDIM MARAMBAIA II           JUNDIAI                                           SP13205756mefer@uol.com.be                                                           10        000000000000000000000000                                                                                                                                                                                                        SERVICO MANUTENCAO COLETORES                                                                                                                                                                                                                
402    E00000000051820230601NT0000000025000000000000000000000749814010000222977869500011900000000GUS INFORMATICA LTDA                                                       ENDR OLICIO RAFAEL PEREIRA                           182                                     JARDIM MARAMBAIA II           JUNDIAI                                           SP13205756mefer@uol.com.be                                                           10        000000000000000000000000                                                                                                                                                                                                        SERVICO MANUTENCAO COLETORES                                                                                                                                                                                                                
90000006000000016687049000000000000000