1002598710912023010120230618
402    E00000002716920230605NT0000000008820900000000000000000269201040000221966100600013800000000MEETIME DESENVOLVIMENTO DE SOFTWARE LTDA                                   ENDAV LUIZ BOITEUX PIAZZA                            1302                                    CACHOEIRA DO BOM JESUS        FLORIANOPOLIS                                     SC88056000diego@meetime.com.br                                                       10        000000000000000000000000                                                                                                                                                                                                        SERVICO DE LICENCA SOFTWARE TELEFONIA                                                                                                                                                                                                       
402    E00000002717020230605NT0000000000581580000000000000000269201040000221966100600013800000000MEETIME DESENVOLVIMENTO DE SOFTWARE LTDA                                   ENDAV LUIZ BOITEUX PIAZZA                            1302                                    CACHOEIRA DO BOM JESUS        FLORIANOPOLIS                                     SC88056000diego@meetime.com.br                                                       10        000000000000000000000000                                                                                                                                                                                                        SERVICO DE LICENCA SOFTWARE TELEFONIA                                                                                                                                                                                                       
402    E00000000638320230601NT0000000001596000000000000000000291901070000220615969900011300000000RIVERSOFT INTEGRACAO E DESENVOLVIMENTO DE SOFTWARE LTDA                    ENDR MARECHAL DEODORO                                480                                     JARDIM SANTA LUCIA            POUSO ALEGRE                                      MG37553405riversoft@riversoft.com.br                                                 10        000000000000000000000000                                                                                                                                                                                                        SERVICO DE LICENCA SOFTWARE                                                                                                                                                                                                                 
402    E00000000966620230605NT0000000141530380000000000000000280001050000220003375700018100000000GEOAMBIENTE SENSORIAMENTO REMOTO LTDA                                      ENDAV SHISHIMA HIFUMI - PARQUE TECNOLOGICO UNIVAP    2911                                    URBANOVA                      SAO JOSE DOS CAMPOS                               SP12244000info@geoambiente.com.br                                                    10        000000000000000000000000                                                                                                                                                                                                        LICENCA MENSAL PLATAFORMA MAPAS                                                                                                                                                                                                             
402    E00000013495220230601NT0000000000062500000000000000000712309020000225971792600014500000000COSTA BRAVA TURISMO LTDA                                                   ENDAV CARLOS GRIMALDI 1701                           1701                                    JARDIM CONCEICAO              CAMPINAS                                          SP13091908faturamento@costabrava.com.br                                              10        000000000000000000000000                                                                                                                                                                                                        SERVICO AGENCIAMENTO ORGANIZ VIAGENS                                                                                                                                                                                                        
90000005000000015259136000000000000000