1002598710912023010120230625
402    E00000000052120230602NT0000000274346390000000000000000291901070000223735740000016900000000                                        TRINITY SERVICOS E INFORMACOES LTDAENDR ERNESTO MEYER FILHO                             241                                     LAGOA DA CONCEICAO            FLORIANOPOLIS                                     SC88062480marcelomuellermartinez@gmail.com                                           10        000000000000000000000000                                                                                                                                                                                                        SERVICO DE LICENCA SOFTWARE                                                                                                                                                                                                                 
402    E00000000051320230601NT0000000048000000000000000000000291901070000220325702600010800000000                                            VIW TECNOLOGIA E SEGURANCA LTDAENDAV YOJIRO TAKAOKA                                 4384                                    SANTANA DE PARNAIBA           SANTANA DE PARNAIBA                               SP06541038CONTATO@VIWSEC.COM.BR                                                      10        000000000000000000000000                                                                                                                                                                                                        SERVICO SUPORTE TECN ASSESSORIA SOFTWARE                                                                                                                                                                                                    
402    E00000000200020230605NT0000000001100000000000000000000280001050000220959145300010400000000      INVENTSYS DESENVOLVIMENTO E LICENCIAMENTO DE SOFTWARE E SISTEMAS LTDAENDR BARONESA DO GRAVATAI                            137                                     CIDADE BAIXA                  PORTO ALEGRE                                      RS90160070financeiro@deskbee.co                                                      10        000000000000000000000000                                                                                                                                                                                                        LICENCA MENSAL PLATAFORMA MAPAS                                                                                                                                                                                                             
402    E00000002017120230601NT0000000099991170000000000000000280001050000220876862700010700000000                        BIG DATA SOLUCOES EM TECNOLOGIA DE INFORMATICA S.A.ENDAV DAS AMERICAS                                   00700                                   BARRA DA TIJUCA               RIO DE JANEIRO                                    RJ22640100financeiro@bigdatacorp.com.br                                              10        000000000000000000000000                                                                                                                                                                                                        SERVICO CONSULT E ASSESORIA SOFTWARE                                                                                                                                                                                                        
402    E00000000291720230613NT0000000047821760000000000000000280001050000221419054900010900000000                                                       EVOLUX SISTEMAS LTDAENDR DOUTOR POTY NOBREGA                             1946                                    LAGOA NOVA                    NATAL                                             RN59056180financeiro@evolux.net.br                                                   10        000000000000000000000000                                                                                                                                                                                                        SERVICO DE LICENCA SOFTWARE TELEFONIA                                                                                                                                                                                                       
402    E00000002809720230614NT0000000002500000000000000000000293501080000222666398700011800000000                                              QUALP PORTAL DE INTERNET S.A.ENDRUA PADRE ANACLETO                                396                                     NOVA RUSSIA                   PONTA GROSSA                                      PR84070066financeiro@kmm.com.br                                                      10        000000000000000000000000                                                                                                                                                                                                        SERVICO DE LICENCA SOFTWARE                                                                                                                                                                                                                 
9000000647375932000000000000000